>>  {"jsonrpc":"2.0","id":1,"method":"debug_getRawBlock","params":["0x3"]}
<<  {"jsonrpc":"2.0","id":1,"error":{"code":-32601,"message":"the method debug_getRawBlock does not exist/is not available"}}
response differs from expected:
 {
-  "error": {
-    "code": -32601,
-    "message": "the method debug_getRawBlock does not exist/is not available"
-  },
   "id": 1,
   "jsonrpc": "2.0"
+  "result": "0xf90288f90218a0fe21bb173f43067a9f90cfc59bbb6830a7a2929b5de4a61f372a9db28e87f9aea01dcc4de8dec75d7aab85b567b6ccd41ad312451b948a7413f0a142fd40d49347940000000000000000000000000000000000000000a061effbbcca94f0d3e02e5bd22e986ad57142acabf0cb3d129a6ad8d0f8752e94a0d911c25e97e27898680d242b7780b6faef30995c355a2d5de92e6b9a7212ad3aa0056b23fbba480696b65fe5a59b8f2148a1299103c4f57df839233af2cf4ca2d2b90100000000000000000000000000000000000000000000000000000000000000000000000000000000000000000000000000000000000000000000000000000000000000000000000000000000000000000000000000000000000000000000000000000000000000000000000000000000000000000000000000000000000000000000000000000000000000000000000000000000000000000000000000000000000000000000000000000000000000000000000000000000000000000000000000000000000000000000000000000000000000000000000000000000000000000000000000000000000000000000000000000000000000000000000000000000008003834c4b408252081e80a00000000000000000000000000000000000000000000000000000000000000000880000000000000000842806be9da056e81f171bcc55a6ff8345e692c0f86e5b48e01b996cadc001622fb5e363b421f869f86702842806be9e82520894658bdf435d810c91414ec09147daa6db624063798203e880820a95a040ce7918eeb045ebf8c8b1887ca139d076bda00fa828a07881d442a72626c42da0156576a68e456e295e4c9cf67cf9f53151f329438916e0f24fc69d6bbb7fbacfc0c0"
 }

>>  {"jsonrpc":"2.0","id":1,"method":"debug_getRawBlock","params":["0x0"]}
<<  {"jsonrpc":"2.0","id":1,"error":{"code":-32601,"message":"the method debug_getRawBlock does not exist/is not available"}}
response differs from expected:
 {
-  "error": {
-    "code": -32601,
-    "message": "the method debug_getRawBlock does not exist/is not available"
-  },
   "id": 1,
   "jsonrpc": "2.0"
+  "result": "0xf9021cf90216a00000000000000000000000000000000000000000000000000000000000000000a01dcc4de8dec75d7aab85b567b6ccd41ad312451b948a7413f0a142fd40d49347940000000000000000000000000000000000000000a0078dc6061b1d8eaa8493384b59c9c65ceb917201221d08b80c4de6770b6ec7e7a056e81f171bcc55a6ff8345e692c0f86e5b48e01b996cadc001622fb5e363b421a056e81f171bcc55a6ff8345e692c0f86e5b48e01b996cadc001622fb5e363b421b90100000000000000000000000000000000000000000000000000000000000000000000000000000000000000000000000000000000000000000000000000000000000000000000000000000000000000000000000000000000000000000000000000000000000000000000000000000000000000000000000000000000000000000000000000000000000000000000000000000000000000000000000000000000000000000000000000000000000000000000000000000000000000000000000000000000000000000000000000000000000000000000000000000000000000000000000000000000000000000000000000000000000000000000000000000000000180834c4b40808080a00000000000000000000000000000000000000000000000000000000000000000880000000000000000843b9aca00a056e81f171bcc55a6ff8345e692c0f86e5b48e01b996cadc001622fb5e363b421c0c0c0"
 }

>>  {"jsonrpc":"2.0","id":1,"method":"debug_getRawBlock","params":["2"]}
<<  {"jsonrpc":"2.0","id":1,"error":{"code":-32601,"message":"the method debug_getRawBlock does not exist/is not available"}}
response differs from expected:
 {
   "error": {
-    "code": -32601,
+    "code": -32602,
-    "message": "the method debug_getRawBlock does not exist/is not available"
+    "message": "invalid argument 0: hex string without 0x prefix"
   },
   "id": 1,
   "jsonrpc": "2.0"
 }

>>  {"jsonrpc":"2.0","id":1,"method":"debug_getRawHeader","params":["0x3"]}
<<  {"jsonrpc":"2.0","id":1,"error":{"code":-32601,"message":"the method debug_getRawHeader does not exist/is not available"}}
response differs from expected:
 {
-  "error": {
-    "code": -32601,
-    "message": "the method debug_getRawHeader does not exist/is not available"
-  },
   "id": 1,
   "jsonrpc": "2.0"
+  "result": "0xf90218a0fe21bb173f43067a9f90cfc59bbb6830a7a2929b5de4a61f372a9db28e87f9aea01dcc4de8dec75d7aab85b567b6ccd41ad312451b948a7413f0a142fd40d49347940000000000000000000000000000000000000000a061effbbcca94f0d3e02e5bd22e986ad57142acabf0cb3d129a6ad8d0f8752e94a0d911c25e97e27898680d242b7780b6faef30995c355a2d5de92e6b9a7212ad3aa0056b23fbba480696b65fe5a59b8f2148a1299103c4f57df839233af2cf4ca2d2b90100000000000000000000000000000000000000000000000000000000000000000000000000000000000000000000000000000000000000000000000000000000000000000000000000000000000000000000000000000000000000000000000000000000000000000000000000000000000000000000000000000000000000000000000000000000000000000000000000000000000000000000000000000000000000000000000000000000000000000000000000000000000000000000000000000000000000000000000000000000000000000000000000000000000000000000000000000000000000000000000000000000000000000000000000000000008003834c4b408252081e80a00000000000000000000000000000000000000000000000000000000000000000880000000000000000842806be9da056e81f171bcc55a6ff8345e692c0f86e5b48e01b996cadc001622fb5e363b421"
 }

>>  {"jsonrpc":"2.0","id":1,"method":"debug_getRawHeader","params":["0x0"]}
<<  {"jsonrpc":"2.0","id":1,"error":{"code":-32601,"message":"the method debug_getRawHeader does not exist/is not available"}}
response differs from expected:
 {
-  "error": {
-    "code": -32601,
-    "message": "the method debug_getRawHeader does not exist/is not available"
-  },
   "id": 1,
   "jsonrpc": "2.0"
+  "result": "0xf90216a00000000000000000000000000000000000000000000000000000000000000000a01dcc4de8dec75d7aab85b567b6ccd41ad312451b948a7413f0a142fd40d49347940000000000000000000000000000000000000000a0078dc6061b1d8eaa8493384b59c9c65ceb917201221d08b80c4de6770b6ec7e7a056e81f171bcc55a6ff8345e692c0f86e5b48e01b996cadc001622fb5e363b421a056e81f171bcc55a6ff8345e692c0f86e5b48e01b996cadc001622fb5e363b421b90100000000000000000000000000000000000000000000000000000000000000000000000000000000000000000000000000000000000000000000000000000000000000000000000000000000000000000000000000000000000000000000000000000000000000000000000000000000000000000000000000000000000000000000000000000000000000000000000000000000000000000000000000000000000000000000000000000000000000000000000000000000000000000000000000000000000000000000000000000000000000000000000000000000000000000000000000000000000000000000000000000000000000000000000000000000000180834c4b40808080a00000000000000000000000000000000000000000000000000000000000000000880000000000000000843b9aca00a056e81f171bcc55a6ff8345e692c0f86e5b48e01b996cadc001622fb5e363b421"
 }

>>  {"jsonrpc":"2.0","id":1,"method":"debug_getRawHeader","params":["2"]}
<<  {"jsonrpc":"2.0","id":1,"error":{"code":-32601,"message":"the method debug_getRawHeader does not exist/is not available"}}
response differs from expected:
 {
   "error": {
-    "code": -32601,
+    "code": -32602,
-    "message": "the method debug_getRawHeader does not exist/is not available"
+    "message": "invalid argument 0: hex string without 0x prefix"
   },
   "id": 1,
   "jsonrpc": "2.0"
 }

>>  {"jsonrpc":"2.0","id":1,"method":"debug_getRawReceipts","params":["0x3"]}
<<  {"jsonrpc":"2.0","id":1,"error":{"code":-32601,"message":"the method debug_getRawReceipts does not exist/is not available"}}
response differs from expected:
 {
-  "error": {
-    "code": -32601,
-    "message": "the method debug_getRawReceipts does not exist/is not available"
-  },
   "id": 1,
   "jsonrpc": "2.0"
+  "result": [
+    : "0xf9010801825208b9010000000000000000000000000000000000000000000000000000000000000000000000000000000000000000000000000000000000000000000000000000000000000000000000000000000000000000000000000000000000000000000000000000000000000000000000000000000000000000000000000000000000000000000000000000000000000000000000000000000000000000000000000000000000000000000000000000000000000000000000000000000000000000000000000000000000000000000000000000000000000000000000000000000000000000000000000000000000000000000000000000000000000000000000000000000000c0"
+  ]
 }

>>  {"jsonrpc":"2.0","id":1,"method":"debug_getRawReceipts","params":["0x0"]}
<<  {"jsonrpc":"2.0","id":1,"error":{"code":-32601,"message":"the method debug_getRawReceipts does not exist/is not available"}}
response differs from expected:
 {
-  "error": {
-    "code": -32601,
-    "message": "the method debug_getRawReceipts does not exist/is not available"
-  },
   "id": 1,
   "jsonrpc": "2.0"
+  "result": [
+  ]
 }

>>  {"jsonrpc":"2.0","id":1,"method":"debug_getRawReceipts","params":["2"]}
<<  {"jsonrpc":"2.0","id":1,"error":{"code":-32601,"message":"the method debug_getRawReceipts does not exist/is not available"}}
response differs from expected:
 {
   "error": {
-    "code": -32601,
+    "code": -32602,
-    "message": "the method debug_getRawReceipts does not exist/is not available"
+    "message": "invalid argument 0: hex string without 0x prefix"
   },
   "id": 1,
   "jsonrpc": "2.0"
 }

>>  {"jsonrpc":"2.0","id":1,"method":"debug_getRawTransaction","params":["1000000000000000000000000000000000000000000000000000000000000001"]}
<<  {"jsonrpc":"2.0","id":1,"error":{"code":-32601,"message":"the method debug_getRawTransaction does not exist/is not available"}}
response differs from expected:
 {
   "error": {
-    "code": -32601,
+    "code": -32602,
-    "message": "the method debug_getRawTransaction does not exist/is not available"
+    "message": "invalid argument 0: json: cannot unmarshal hex string without 0x prefix into Go value of type common.Hash"
   },
   "id": 1,
   "jsonrpc": "2.0"
 }

>>  {"jsonrpc":"2.0","id":1,"method":"debug_getRawTransaction","params":["0x74e41d593675913d6d5521f46523f1bd396dff1891bdb35f59be47c7e5e0b34b"]}
<<  {"jsonrpc":"2.0","id":1,"error":{"code":-32601,"message":"the method debug_getRawTransaction does not exist/is not available"}}
response differs from expected:
 {
-  "error": {
-    "code": -32601,
-    "message": "the method debug_getRawTransaction does not exist/is not available"
-  },
   "id": 1,
   "jsonrpc": "2.0"
+  "result": "0xf8678084342770c182520894658bdf435d810c91414ec09147daa6db624063798203e880820a95a0af5fc351b9e457a31f37c84e5cd99dd3c5de60af3de33c6f4160177a2c786a60a0201da7a21046af55837330a2c52fc1543cd4d9ead00ddf178dd96935b607ff9b"
 }

>>  {"jsonrpc":"2.0","id":1,"method":"eth_blockNumber"}
<<  {"jsonrpc":"2.0","id":1,"error":{"code":-32603,"message":"method handler crashed"}}
response differs from expected:
 {
-  "error": {
-    "code": -32603,
-    "message": "method handler crashed"
-  },
   "id": 1,
   "jsonrpc": "2.0"
+  "result": "0x3"
 }

>>  {"jsonrpc":"2.0","id":1,"method":"eth_call","params":[{"from":"0xaa00000000000000000000000000000000000000","to":"0xaa00000000000000000000000000000000000000"},"latest"]}
<<  {"jsonrpc":"2.0","id":1,"error":{"code":-32000,"message":"block not found"}}
response differs from expected:
 {
-  "error": {
-    "code": -32000,
-    "message": "block not found"
-  },
   "id": 1,
   "jsonrpc": "2.0"
+  "result": "0x"
 }

>>  {"jsonrpc":"2.0","id":1,"method":"eth_call","params":[{"from":"0xaa00000000000000000000000000000000000000","gas":"0x186a0","to":"0x0100000000000000000000000000000000000000"},"latest"]}
<<  {"jsonrpc":"2.0","id":1,"error":{"code":-32000,"message":"block not found"}}
response differs from expected:
 {
-  "error": {
-    "code": -32000,
-    "message": "block not found"
-  },
   "id": 1,
   "jsonrpc": "2.0"
+  "result": "0x"
 }

>>  {"jsonrpc":"2.0","id":1,"method":"eth_chainId"}
<<  {"jsonrpc":"2.0","id":1,"result":"0x10f2c"}
response differs from expected:
 {
   "id": 1,
   "jsonrpc": "2.0",
-  "result": "0x10f2c"
+  "result": "0x539"
 }

>>  {"jsonrpc":"2.0","id":1,"method":"eth_createAccessList","params":[{"from":"0x658bdf435d810c91414ec09147daa6db62406379","to":"0xbb00000000000000000000000000000000000000"},"latest"]}
<<  {"jsonrpc":"2.0","id":1,"error":{"code":-32000,"message":"block not found"}}
response differs from expected:
 {
-  "error": {
-    "code": -32000,
-    "message": "block not found"
-  },
   "id": 1,
   "jsonrpc": "2.0"
+  "result": {
+    "accessList": [
+      : {
+        "address": "0xbb00000000000000000000000000000000000000",
+        "storageKeys": [
+          : "0x0000000000000000000000000000000000000000000000000000000000000001",
+          : "0x0000000000000000000000000000000000000000000000000000000000000003"
+        ]
+      }
+    ],
+    "gasUsed": "0x6b0e"
+  }
 }

>>  {"jsonrpc":"2.0","id":1,"method":"eth_createAccessList","params":[{"from":"0x658bdf435d810c91414ec09147daa6db62406379","to":"0xaa00000000000000000000000000000000000000"},"latest"]}
<<  {"jsonrpc":"2.0","id":1,"error":{"code":-32000,"message":"block not found"}}
response differs from expected:
 {
-  "error": {
-    "code": -32000,
-    "message": "block not found"
-  },
   "id": 1,
   "jsonrpc": "2.0"
+  "result": {
+    "accessList": [
+    ],
+    "gasUsed": "0x520b"
+  }
 }

>>  {"jsonrpc":"2.0","id":1,"method":"eth_createAccessList","params":[{"from":"0x658bdf435d810c91414ec09147daa6db62406379","to":"0x0100000000000000000000000000000000000000"},"latest"]}
<<  {"jsonrpc":"2.0","id":1,"error":{"code":-32000,"message":"block not found"}}
response differs from expected:
 {
-  "error": {
-    "code": -32000,
-    "message": "block not found"
-  },
   "id": 1,
   "jsonrpc": "2.0"
+  "result": {
+    "accessList": [
+    ],
+    "gasUsed": "0x5208"
+  }
 }

>>  {"jsonrpc":"2.0","id":1,"method":"eth_estimateGas","params":[{"from":"0xaa00000000000000000000000000000000000000","to":"0xaa00000000000000000000000000000000000000"}]}
<<  {"jsonrpc":"2.0","id":1,"error":{"code":-32000,"message":"block not found, is your node pruned?: polarisBlockByNumberOrHash: number [-2]"}}
response differs from expected:
 {
-  "error": {
-    "code": -32000,
-    "message": "block not found, is your node pruned?: polarisBlockByNumberOrHash: number [-2]"
-  },
   "id": 1,
   "jsonrpc": "2.0"
+  "result": "0x520b"
 }

>>  {"jsonrpc":"2.0","id":1,"method":"eth_estimateGas","params":[{"from":"0xaa00000000000000000000000000000000000000","to":"0x0100000000000000000000000000000000000000"}]}
<<  {"jsonrpc":"2.0","id":1,"error":{"code":-32000,"message":"block not found, is your node pruned?: polarisBlockByNumberOrHash: number [-2]"}}
response differs from expected:
 {
-  "error": {
-    "code": -32000,
-    "message": "block not found, is your node pruned?: polarisBlockByNumberOrHash: number [-2]"
-  },
   "id": 1,
   "jsonrpc": "2.0"
+  "result": "0x5208"
 }

>>  {"jsonrpc":"2.0","id":1,"method":"eth_feeHistory","params":["0x1","0x2",[95,99]]}
<<  {"jsonrpc":"2.0","id":1,"error":{"code":-32603,"message":"method handler crashed"}}
response differs from expected:
 {
-  "error": {
-    "code": -32603,
-    "message": "method handler crashed"
-  },
   "id": 1,
   "jsonrpc": "2.0"
+  "result": {
+    "baseFeePerGas": [
+      : "0x2db08786",
+      : "0x2806be9d"
+    ],
+    "gasUsedRatio": [
+      : 0.0042
+    ],
+    "oldestBlock": "0x2",
+    "reward": [
+      : [
+        : "0x1",
+        : "0x1"
+      ]
+    ]
+  }
 }

>>  {"jsonrpc":"2.0","id":1,"method":"eth_getBalance","params":["0xaa00000000000000000000000000000000000000","0x898753d8fdd8d92c1907ca21e68c7970abd290c647a202091181deec3f30a0b2"]}
<<  {"jsonrpc":"2.0","id":1,"error":{"code":-32603,"message":"method handler crashed"}}
response differs from expected:
 {
-  "error": {
-    "code": -32603,
-    "message": "method handler crashed"
-  },
   "id": 1,
   "jsonrpc": "2.0"
+  "result": "0x1"
 }

>>  {"jsonrpc":"2.0","id":1,"method":"eth_getBalance","params":["0xaa00000000000000000000000000000000000000","latest"]}
<<  {"jsonrpc":"2.0","id":1,"error":{"code":-32000,"message":"block not found"}}
response differs from expected:
 {
-  "error": {
-    "code": -32000,
-    "message": "block not found"
-  },
   "id": 1,
   "jsonrpc": "2.0"
+  "result": "0x1"
 }

>>  {"jsonrpc":"2.0","id":1,"method":"eth_getBlockByHash","params":["0x898753d8fdd8d92c1907ca21e68c7970abd290c647a202091181deec3f30a0b2",true]}
<<  {"jsonrpc":"2.0","id":1,"error":{"code":-32603,"message":"method handler crashed"}}
response differs from expected:
 {
-  "error": {
-    "code": -32603,
-    "message": "method handler crashed"
-  },
   "id": 1,
   "jsonrpc": "2.0"
+  "result": {
+    "baseFeePerGas": "0x342770c0",
+    "difficulty": "0x0",
+    "extraData": "0x",
+    "gasLimit": "0x4c4b40",
+    "gasUsed": "0x5208",
+    "hash": "0x898753d8fdd8d92c1907ca21e68c7970abd290c647a202091181deec3f30a0b2",
+    "logsBloom": "0x00000000000000000000000000000000000000000000000000000000000000000000000000000000000000000000000000000000000000000000000000000000000000000000000000000000000000000000000000000000000000000000000000000000000000000000000000000000000000000000000000000000000000000000000000000000000000000000000000000000000000000000000000000000000000000000000000000000000000000000000000000000000000000000000000000000000000000000000000000000000000000000000000000000000000000000000000000000000000000000000000000000000000000000000000000000",
+    "miner": "0x0000000000000000000000000000000000000000",
+    "mixHash": "0x0000000000000000000000000000000000000000000000000000000000000000",
+    "nonce": "0x0000000000000000",
+    "number": "0x1",
+    "parentHash": "0x1fc027d65f820d3eef441ebeec139ebe09e471cf98516dce7b5643ccb27f418c",
+    "receiptsRoot": "0x056b23fbba480696b65fe5a59b8f2148a1299103c4f57df839233af2cf4ca2d2",
+    "sha3Uncles": "0x1dcc4de8dec75d7aab85b567b6ccd41ad312451b948a7413f0a142fd40d49347",
+    "size": "0x28b",
+    "stateRoot": "0xa112033b100ca01e159de21f1bb229133c7734c616bbf34c2f51032c6da71f75",
+    "timestamp": "0xa",
+    "totalDifficulty": "0x1",
+    "transactions": [
+      : {
+        "blockHash": "0x898753d8fdd8d92c1907ca21e68c7970abd290c647a202091181deec3f30a0b2",
+        "blockNumber": "0x1",
+        "chainId": "0x539",
+        "from": "0x658bdf435d810c91414ec09147daa6db62406379",
+        "gas": "0x5208",
+        "gasPrice": "0x342770c1",
+        "hash": "0x74e41d593675913d6d5521f46523f1bd396dff1891bdb35f59be47c7e5e0b34b",
+        "input": "0x",
+        "nonce": "0x0",
+        "r": "0xaf5fc351b9e457a31f37c84e5cd99dd3c5de60af3de33c6f4160177a2c786a60",
+        "s": "0x201da7a21046af55837330a2c52fc1543cd4d9ead00ddf178dd96935b607ff9b",
+        "to": "0x658bdf435d810c91414ec09147daa6db62406379",
+        "transactionIndex": "0x0",
+        "type": "0x0",
+        "v": "0xa95",
+        "value": "0x3e8"
+      }
+    ],
+    "transactionsRoot": "0xbf06cffa242d5b5d567567b318fc73c54364a73827ab4cdbca7a9db1c788581a",
+    "uncles": [
+    ],
+    "withdrawals": [
+    ],
+    "withdrawalsRoot": "0x56e81f171bcc55a6ff8345e692c0f86e5b48e01b996cadc001622fb5e363b421"
+  }
 }

>>  {"jsonrpc":"2.0","id":1,"method":"eth_getBlockByNumber","params":["0x2",true]}
<<  {"jsonrpc":"2.0","id":1,"error":{"code":-32000,"message":"PolarisBaseApp is not ready; please wait for first block: invalid height [cosmos/cosmos-sdk@v0.48.0/baseapp/abci.go:789]: GetHeader: failed to use query context: BlockByNumber [2]"}}
response differs from expected:
 {
-  "error": {
-    "code": -32000,
-    "message": "PolarisBaseApp is not ready; please wait for first block: invalid height [cosmos/cosmos-sdk@v0.48.0/baseapp/abci.go:789]: GetHeader: failed to use query context: BlockByNumber [2]"
-  },
   "id": 1,
   "jsonrpc": "2.0"
+  "result": {
+    "baseFeePerGas": "0x2db08786",
+    "difficulty": "0x0",
+    "extraData": "0x",
+    "gasLimit": "0x4c4b40",
+    "gasUsed": "0x5208",
+    "hash": "0xfe21bb173f43067a9f90cfc59bbb6830a7a2929b5de4a61f372a9db28e87f9ae",
+    "logsBloom": "0x00000000000000000000000000000000000000000000000000000000000000000000000000000000000000000000000000000000000000000000000000000000000000000000000000000000000000000000000000000000000000000000000000000000000000000000000000000000000000000000000000000000000000000000000000000000000000000000000000000000000000000000000000000000000000000000000000000000000000000000000000000000000000000000000000000000000000000000000000000000000000000000000000000000000000000000000000000000000000000000000000000000000000000000000000000000",
+    "miner": "0x0000000000000000000000000000000000000000",
+    "mixHash": "0x0000000000000000000000000000000000000000000000000000000000000000",
+    "nonce": "0x0000000000000000",
+    "number": "0x2",
+    "parentHash": "0x898753d8fdd8d92c1907ca21e68c7970abd290c647a202091181deec3f30a0b2",
+    "receiptsRoot": "0x056b23fbba480696b65fe5a59b8f2148a1299103c4f57df839233af2cf4ca2d2",
+    "sha3Uncles": "0x1dcc4de8dec75d7aab85b567b6ccd41ad312451b948a7413f0a142fd40d49347",
+    "size": "0x2bf",
+    "stateRoot": "0xeb3709201a2eed4c86610af6beafb09fe914ff1eb0feaa5acb7747880c123d2f",
+    "timestamp": "0x14",
+    "totalDifficulty": "0x1",
+    "transactions": [
+      : {
+        "blockHash": "0xfe21bb173f43067a9f90cfc59bbb6830a7a2929b5de4a61f372a9db28e87f9ae",
+        "blockNumber": "0x2",
+        "chainId": "0x539",
+        "from": "0x658bdf435d810c91414ec09147daa6db62406379",
+        "gas": "0x5208",
+        "gasPrice": "0x2db08787",
+        "hash": "0x0d9ba049a158972e7fc1066122ceb31e431483ebf84f90f845f02e326942d467",
+        "input": "0x",
+        "nonce": "0x1",
+        "r": "0x52a6f622013359249316f4c017a67bc2c659f513dac5efea43a84b6ce4e462b1",
+        "s": "0x55ba2a779eaf62efa7d641a32ea329faabf9f097d376e2e400115a5151b9470",
+        "to": "0x658bdf435d810c91414ec09147daa6db62406379",
+        "transactionIndex": "0x0",
+        "type": "0x0",
+        "v": "0xa95",
+        "value": "0x3e8"
+      }
+    ],
+    "transactionsRoot": "0x14488a14ae59174bedee90344854fb9b6a308143ce4bf688c00f2e81a9aae2a3",
+    "uncles": [
+    ],
+    "withdrawals": [
+      : {
+        "address": "0xee00000000000000000000000000000000000000",
+        "amount": "0x539",
+        "index": "0x0",
+        "validatorIndex": "0x2a"
+      },
+      : {
+        "address": "0xee00000000000000000000000000000000000000",
+        "amount": "0x1",
+        "index": "0x1",
+        "validatorIndex": "0xd"
+      }
+    ],
+    "withdrawalsRoot": "0x625ee608ff633ca6371503f9a8159a9e158f3fa9585650418562ef7bd1d1dfc9"
+  }
 }

>>  {"jsonrpc":"2.0","id":1,"method":"eth_getBlockByNumber","params":["0x0",true]}
<<  {"jsonrpc":"2.0","id":1,"error":{"code":-32000,"message":"PolarisBaseApp is not ready; please wait for first block: invalid height [cosmos/cosmos-sdk@v0.48.0/baseapp/abci.go:789]: GetHeader: failed to use query context: BlockByNumber [0]"}}
response differs from expected:
 {
-  "error": {
-    "code": -32000,
-    "message": "PolarisBaseApp is not ready; please wait for first block: invalid height [cosmos/cosmos-sdk@v0.48.0/baseapp/abci.go:789]: GetHeader: failed to use query context: BlockByNumber [0]"
-  },
   "id": 1,
   "jsonrpc": "2.0"
+  "result": {
+    "baseFeePerGas": "0x3b9aca00",
+    "difficulty": "0x1",
+    "extraData": "0x",
+    "gasLimit": "0x4c4b40",
+    "gasUsed": "0x0",
+    "hash": "0x1fc027d65f820d3eef441ebeec139ebe09e471cf98516dce7b5643ccb27f418c",
+    "logsBloom": "0x00000000000000000000000000000000000000000000000000000000000000000000000000000000000000000000000000000000000000000000000000000000000000000000000000000000000000000000000000000000000000000000000000000000000000000000000000000000000000000000000000000000000000000000000000000000000000000000000000000000000000000000000000000000000000000000000000000000000000000000000000000000000000000000000000000000000000000000000000000000000000000000000000000000000000000000000000000000000000000000000000000000000000000000000000000000",
+    "miner": "0x0000000000000000000000000000000000000000",
+    "mixHash": "0x0000000000000000000000000000000000000000000000000000000000000000",
+    "nonce": "0x0000000000000000",
+    "number": "0x0",
+    "parentHash": "0x0000000000000000000000000000000000000000000000000000000000000000",
+    "receiptsRoot": "0x56e81f171bcc55a6ff8345e692c0f86e5b48e01b996cadc001622fb5e363b421",
+    "sha3Uncles": "0x1dcc4de8dec75d7aab85b567b6ccd41ad312451b948a7413f0a142fd40d49347",
+    "size": "0x21f",
+    "stateRoot": "0x078dc6061b1d8eaa8493384b59c9c65ceb917201221d08b80c4de6770b6ec7e7",
+    "timestamp": "0x0",
+    "totalDifficulty": "0x1",
+    "transactions": [
+    ],
+    "transactionsRoot": "0x56e81f171bcc55a6ff8345e692c0f86e5b48e01b996cadc001622fb5e363b421",
+    "uncles": [
+    ],
+    "withdrawals": [
+    ],
+    "withdrawalsRoot": "0x56e81f171bcc55a6ff8345e692c0f86e5b48e01b996cadc001622fb5e363b421"
+  }
 }

>>  {"jsonrpc":"2.0","id":1,"method":"eth_getBlockTransactionCountByHash","params":["0xfe21bb173f43067a9f90cfc59bbb6830a7a2929b5de4a61f372a9db28e87f9ae"]}
<<  {"jsonrpc":"2.0","id":1,"error":{"code":-32603,"message":"method handler crashed"}}
response differs from expected:
 {
-  "error": {
-    "code": -32603,
-    "message": "method handler crashed"
-  },
   "id": 1,
   "jsonrpc": "2.0"
+  "result": "0x1"
 }

>>  {"jsonrpc":"2.0","id":1,"method":"eth_getBlockTransactionCountByHash","params":["0x1fc027d65f820d3eef441ebeec139ebe09e471cf98516dce7b5643ccb27f418c"]}
<<  {"jsonrpc":"2.0","id":1,"error":{"code":-32603,"message":"method handler crashed"}}
response differs from expected:
 {
-  "error": {
-    "code": -32603,
-    "message": "method handler crashed"
-  },
   "id": 1,
   "jsonrpc": "2.0"
+  "result": "0x0"
 }

>>  {"jsonrpc":"2.0","id":1,"method":"eth_getBlockTransactionCountByNumber","params":["0x2"]}
<<  {"jsonrpc":"2.0","id":1,"result":null}
response differs from expected:
 {
   "id": 1,
   "jsonrpc": "2.0",
-  "result": null
+  "result": "0x1"
 }

>>  {"jsonrpc":"2.0","id":1,"method":"eth_getBlockTransactionCountByNumber","params":["0x0"]}
<<  {"jsonrpc":"2.0","id":1,"result":null}
response differs from expected:
 {
   "id": 1,
   "jsonrpc": "2.0",
-  "result": null
+  "result": "0x0"
 }

>>  {"jsonrpc":"2.0","id":1,"method":"eth_getCode","params":["0xaa00000000000000000000000000000000000000","latest"]}
<<  {"jsonrpc":"2.0","id":1,"error":{"code":-32000,"message":"block not found"}}
response differs from expected:
 {
-  "error": {
-    "code": -32000,
-    "message": "block not found"
-  },
   "id": 1,
   "jsonrpc": "2.0"
+  "result": "0x6042"
 }

>>  {"jsonrpc":"2.0","id":1,"method":"eth_getProof","params":["0xaa00000000000000000000000000000000000000",[],"0x0279dbea83debc0ad7c849d4e0f0b4dd12f5d1e44caa000eb81906226361c33e"]}
<<  {"jsonrpc":"2.0","id":1,"error":{"code":-32603,"message":"method handler crashed"}}
response differs from expected:
 {
-  "error": {
-    "code": -32603,
-    "message": "method handler crashed"
-  },
   "id": 1,
   "jsonrpc": "2.0"
+  "result": {
+    "accountProof": [
+      : "0xf8718080808080a0a2bd2175aed7ed88ed854c914fab94115c092ffb3c3c2ef647b70b7e73e3345880a0457ae8d978cd387f5332f978f5653226588b6cc76a355fc5977cd4325ffcff78a0c4bdbdbb240f8343b7f84bc83d4b7426e803a914138792d1e369907be8098b2d8080808080808080",
+      : "0xf869a0335649db80be637d281db0cc5896b0ff9869d08379a80fdc38dd073bba633949b846f8440101a08afc95b7d18a226944b9c2070b6bda1c3a36afcc3730429d47579c94b9fe5850a0ce92c756baff35fa740c3557c1a971fd24d2d35b7c8e067880d50cd86bb0bc99"
+    ],
+    "address": "0xaa00000000000000000000000000000000000000",
+    "balance": "0x1",
+    "codeHash": "0xce92c756baff35fa740c3557c1a971fd24d2d35b7c8e067880d50cd86bb0bc99",
+    "nonce": "0x1",
+    "storageHash": "0x8afc95b7d18a226944b9c2070b6bda1c3a36afcc3730429d47579c94b9fe5850",
+    "storageProof": [
+    ]
+  }
 }

>>  {"jsonrpc":"2.0","id":1,"method":"eth_getProof","params":["0xaa00000000000000000000000000000000000000",["0x01"],"0x3"]}
<<  {"jsonrpc":"2.0","id":1,"error":{"code":-32000,"message":"PolarisBaseApp is not ready; please wait for first block: invalid height [cosmos/cosmos-sdk@v0.48.0/baseapp/abci.go:789]: GetHeader: failed to use query context"}}
response differs from expected:
 {
-  "error": {
-    "code": -32000,
-    "message": "PolarisBaseApp is not ready; please wait for first block: invalid height [cosmos/cosmos-sdk@v0.48.0/baseapp/abci.go:789]: GetHeader: failed to use query context"
-  },
   "id": 1,
   "jsonrpc": "2.0"
+  "result": {
+    "accountProof": [
+      : "0xf8718080808080a0a2bd2175aed7ed88ed854c914fab94115c092ffb3c3c2ef647b70b7e73e3345880a0457ae8d978cd387f5332f978f5653226588b6cc76a355fc5977cd4325ffcff78a0c4bdbdbb240f8343b7f84bc83d4b7426e803a914138792d1e369907be8098b2d8080808080808080",
+      : "0xf869a0335649db80be637d281db0cc5896b0ff9869d08379a80fdc38dd073bba633949b846f8440101a08afc95b7d18a226944b9c2070b6bda1c3a36afcc3730429d47579c94b9fe5850a0ce92c756baff35fa740c3557c1a971fd24d2d35b7c8e067880d50cd86bb0bc99"
+    ],
+    "address": "0xaa00000000000000000000000000000000000000",
+    "balance": "0x1",
+    "codeHash": "0xce92c756baff35fa740c3557c1a971fd24d2d35b7c8e067880d50cd86bb0bc99",
+    "nonce": "0x1",
+    "storageHash": "0x8afc95b7d18a226944b9c2070b6bda1c3a36afcc3730429d47579c94b9fe5850",
+    "storageProof": [
+      : {
+        "key": "0x01",
+        "proof": [
+          : "0xf871808080a0ce028e108cf5c832b0a9afd3ed101183857b3b9ddaea5670c4f09b62e4d38d05a0de3ecad66628a5743ed089e3a35ebeedc25a922fb0ac346304613403911c18e0a0128c5f7abac505794cda09bde44d143e4736b50b1c42d6807a989c10af51e8d18080808080808080808080"
+        ],
+        "value": "0x0"
+      }
+    ]
+  }
 }

>>  {"jsonrpc":"2.0","id":1,"method":"eth_getProof","params":["0xaa00000000000000000000000000000000000000",[],"0x3"]}
<<  {"jsonrpc":"2.0","id":1,"error":{"code":-32000,"message":"PolarisBaseApp is not ready; please wait for first block: invalid height [cosmos/cosmos-sdk@v0.48.0/baseapp/abci.go:789]: GetHeader: failed to use query context"}}
response differs from expected:
 {
-  "error": {
-    "code": -32000,
-    "message": "PolarisBaseApp is not ready; please wait for first block: invalid height [cosmos/cosmos-sdk@v0.48.0/baseapp/abci.go:789]: GetHeader: failed to use query context"
-  },
   "id": 1,
   "jsonrpc": "2.0"
+  "result": {
+    "accountProof": [
+      : "0xf8718080808080a0a2bd2175aed7ed88ed854c914fab94115c092ffb3c3c2ef647b70b7e73e3345880a0457ae8d978cd387f5332f978f5653226588b6cc76a355fc5977cd4325ffcff78a0c4bdbdbb240f8343b7f84bc83d4b7426e803a914138792d1e369907be8098b2d8080808080808080",
+      : "0xf869a0335649db80be637d281db0cc5896b0ff9869d08379a80fdc38dd073bba633949b846f8440101a08afc95b7d18a226944b9c2070b6bda1c3a36afcc3730429d47579c94b9fe5850a0ce92c756baff35fa740c3557c1a971fd24d2d35b7c8e067880d50cd86bb0bc99"
+    ],
+    "address": "0xaa00000000000000000000000000000000000000",
+    "balance": "0x1",
+    "codeHash": "0xce92c756baff35fa740c3557c1a971fd24d2d35b7c8e067880d50cd86bb0bc99",
+    "nonce": "0x1",
+    "storageHash": "0x8afc95b7d18a226944b9c2070b6bda1c3a36afcc3730429d47579c94b9fe5850",
+    "storageProof": [
+    ]
+  }
 }

>>  {"jsonrpc":"2.0","id":12,"method":"eth_getStorageAt","params":["0xaa00000000000000000000000000000000000000","0x00000000000000000000000000000000000000000000000000000000000000000","latest"]}
<<  {"jsonrpc":"2.0","id":12,"error":{"code":-32000,"message":"block not found"}}
response differs from expected:
 {
   "error": {
     "code": -32000,
-    "message": "block not found"
+    "message": "hex string of odd length"
   },
   "id": 12,
   "jsonrpc": "2.0"
 }

>>  {"jsonrpc":"2.0","id":11,"method":"eth_getStorageAt","params":["0xaa00000000000000000000000000000000000000","0xasdf","latest"]}
<<  {"jsonrpc":"2.0","id":11,"error":{"code":-32000,"message":"block not found"}}
response differs from expected:
 {
   "error": {
     "code": -32000,
-    "message": "block not found"
+    "message": "invalid hex string"
   },
   "id": 11,
   "jsonrpc": "2.0"
 }

>>  {"jsonrpc":"2.0","id":1,"method":"eth_getStorageAt","params":["0xaa00000000000000000000000000000000000000","0x0100000000000000000000000000000000000000000000000000000000000000","latest"]}
<<  {"jsonrpc":"2.0","id":1,"error":{"code":-32000,"message":"block not found"}}
response differs from expected:
 {
-  "error": {
-    "code": -32000,
-    "message": "block not found"
-  },
   "id": 1,
   "jsonrpc": "2.0"
+  "result": "0x0100000000000000000000000000000000000000000000000000000000000000"
 }

>>  {"jsonrpc":"2.0","id":1,"method":"eth_getTransactionByBlockHashAndIndex","params":["0xfe21bb173f43067a9f90cfc59bbb6830a7a2929b5de4a61f372a9db28e87f9ae","0x0"]}
<<  {"jsonrpc":"2.0","id":1,"error":{"code":-32603,"message":"method handler crashed"}}
response differs from expected:
 {
-  "error": {
-    "code": -32603,
-    "message": "method handler crashed"
-  },
   "id": 1,
   "jsonrpc": "2.0"
+  "result": {
+    "blockHash": "0xfe21bb173f43067a9f90cfc59bbb6830a7a2929b5de4a61f372a9db28e87f9ae",
+    "blockNumber": "0x2",
+    "chainId": "0x539",
+    "from": "0x658bdf435d810c91414ec09147daa6db62406379",
+    "gas": "0x5208",
+    "gasPrice": "0x2db08787",
+    "hash": "0x0d9ba049a158972e7fc1066122ceb31e431483ebf84f90f845f02e326942d467",
+    "input": "0x",
+    "nonce": "0x1",
+    "r": "0x52a6f622013359249316f4c017a67bc2c659f513dac5efea43a84b6ce4e462b1",
+    "s": "0x55ba2a779eaf62efa7d641a32ea329faabf9f097d376e2e400115a5151b9470",
+    "to": "0x658bdf435d810c91414ec09147daa6db62406379",
+    "transactionIndex": "0x0",
+    "type": "0x0",
+    "v": "0xa95",
+    "value": "0x3e8"
+  }
 }

>>  {"jsonrpc":"2.0","id":1,"method":"eth_getTransactionByBlockNumberAndIndex","params":["0x2","0x0"]}
<<  {"jsonrpc":"2.0","id":1,"result":null}
response differs from expected:
 {
   "id": 1,
   "jsonrpc": "2.0",
-  "result": null
+  "result": {
+    "blockHash": "0xfe21bb173f43067a9f90cfc59bbb6830a7a2929b5de4a61f372a9db28e87f9ae",
+    "blockNumber": "0x2",
+    "chainId": "0x539",
+    "from": "0x658bdf435d810c91414ec09147daa6db62406379",
+    "gas": "0x5208",
+    "gasPrice": "0x2db08787",
+    "hash": "0x0d9ba049a158972e7fc1066122ceb31e431483ebf84f90f845f02e326942d467",
+    "input": "0x",
+    "nonce": "0x1",
+    "r": "0x52a6f622013359249316f4c017a67bc2c659f513dac5efea43a84b6ce4e462b1",
+    "s": "0x55ba2a779eaf62efa7d641a32ea329faabf9f097d376e2e400115a5151b9470",
+    "to": "0x658bdf435d810c91414ec09147daa6db62406379",
+    "transactionIndex": "0x0",
+    "type": "0x0",
+    "v": "0xa95",
+    "value": "0x3e8"
+  }
 }

>>  {"jsonrpc":"2.0","id":1,"method":"eth_getTransactionByHash","params":["0x0d9ba049a158972e7fc1066122ceb31e431483ebf84f90f845f02e326942d467"]}
<<  {"jsonrpc":"2.0","id":1,"error":{"code":-32603,"message":"method handler crashed"}}
response differs from expected:
 {
-  "error": {
-    "code": -32603,
-    "message": "method handler crashed"
-  },
   "id": 1,
   "jsonrpc": "2.0"
+  "result": {
+    "blockHash": "0xfe21bb173f43067a9f90cfc59bbb6830a7a2929b5de4a61f372a9db28e87f9ae",
+    "blockNumber": "0x2",
+    "chainId": "0x539",
+    "from": "0x658bdf435d810c91414ec09147daa6db62406379",
+    "gas": "0x5208",
+    "gasPrice": "0x2db08787",
+    "hash": "0x0d9ba049a158972e7fc1066122ceb31e431483ebf84f90f845f02e326942d467",
+    "input": "0x",
+    "nonce": "0x1",
+    "r": "0x52a6f622013359249316f4c017a67bc2c659f513dac5efea43a84b6ce4e462b1",
+    "s": "0x55ba2a779eaf62efa7d641a32ea329faabf9f097d376e2e400115a5151b9470",
+    "to": "0x658bdf435d810c91414ec09147daa6db62406379",
+    "transactionIndex": "0x0",
+    "type": "0x0",
+    "v": "0xa95",
+    "value": "0x3e8"
+  }
 }

>>  {"jsonrpc":"2.0","id":1,"method":"eth_getTransactionCount","params":["0xaa00000000000000000000000000000000000000","latest"]}
<<  {"jsonrpc":"2.0","id":1,"error":{"code":-32000,"message":"block not found"}}
response differs from expected:
 {
-  "error": {
-    "code": -32000,
-    "message": "block not found"
-  },
   "id": 1,
   "jsonrpc": "2.0"
+  "result": "0x1"
 }

>>  {"jsonrpc":"2.0","id":1,"method":"eth_getTransactionReceipt","params":["0x0d9ba049a158972e7fc1066122ceb31e431483ebf84f90f845f02e326942d467"]}
<<  {"jsonrpc":"2.0","id":1,"error":{"code":-32603,"message":"method handler crashed"}}
response differs from expected:
 {
-  "error": {
-    "code": -32603,
-    "message": "method handler crashed"
-  },
   "id": 1,
   "jsonrpc": "2.0"
+  "result": {
+    "blockHash": "0xfe21bb173f43067a9f90cfc59bbb6830a7a2929b5de4a61f372a9db28e87f9ae",
+    "blockNumber": "0x2",
+    "contractAddress": null,
+    "cumulativeGasUsed": "0x5208",
+    "effectiveGasPrice": "0x2db08787",
+    "from": "0x658bdf435d810c91414ec09147daa6db62406379",
+    "gasUsed": "0x5208",
+    "logs": [
+    ],
+    "logsBloom": "0x00000000000000000000000000000000000000000000000000000000000000000000000000000000000000000000000000000000000000000000000000000000000000000000000000000000000000000000000000000000000000000000000000000000000000000000000000000000000000000000000000000000000000000000000000000000000000000000000000000000000000000000000000000000000000000000000000000000000000000000000000000000000000000000000000000000000000000000000000000000000000000000000000000000000000000000000000000000000000000000000000000000000000000000000000000000",
+    "status": "0x1",
+    "to": "0x658bdf435d810c91414ec09147daa6db62406379",
+    "transactionHash": "0x0d9ba049a158972e7fc1066122ceb31e431483ebf84f90f845f02e326942d467",
+    "transactionIndex": "0x0",
+    "type": "0x0"
+  }
 }

>>  {"jsonrpc":"2.0","id":1,"method":"eth_sendRawTransaction","params":["0xf86703843b9aca018261a894aa000000000000000000000000000000000000000a825544820a96a00cceac48b63ae1f26f8ce1a3286156d01a5cac7253c7089ecb8580a4123cd573a07f11686affcd108c08034c809f7856934db43e9c10808aa93043d12c073a8ace"]}
<<  {"jsonrpc":"2.0","id":1,"error":{"code":-32603,"message":"method handler crashed"}}
response differs from expected:
 {
-  "error": {
-    "code": -32603,
-    "message": "method handler crashed"
-  },
   "id": 1,
   "jsonrpc": "2.0"
+  "result": "0xdb4f3d4fa301b2d8673eb87a015e3eec26c3c3ccbdc9ff81fd11defeaff95398"
 }

>>  {"jsonrpc":"2.0","id":1,"method":"eth_syncing"}
<<  {"jsonrpc":"2.0","id":1,"result":false}
